:020000040800F2
:1000000000500020E9170008D5160008DB1600088C
:10001000E1160008E7160008ED16000800000000D1
:10002000000000000000000000000000F3160008BF
:10003000FF160008000000000B1700081717000843
:10004000311800083118000831180008311800086C
:10005000311800083118000831180008311800085C
:10006000311800083118000831180008311800084C
:10007000311800083118000831180008311800083C
:10008000311800083118000831180008311800082C
:10009000311800083118000831180008311800081C
:1000A000311800083118000831180008311800080C
:1000B0002517000831180008311800083118000809
:1000C00031180008311800083118000831180008EC
:1000D00031180008391700084D17000831180008BA
:1000E00061170008311800083118000800000000EE
:1000F0000000000000000000000000000000000000
:0C01000000000000000000005FF808F1A3
:10010C0010B5054C237833B9044B13B10448AFF345
:10011C0000800123237010BD74000020000000003B
:10012C00405E000808B5034B1BB103490348AFF30D
:10013C00008008BD0000000078000020405E000830
:10014C0080B586B002AF0346FB71FB7923F00F0339
:10015C00FB73FB791B01BB73FB7B43F00C03DBB222
:10016C003B72FB7B43F00803DBB27B72BB7B43F03F
:10017C000C03DBB2BB72BB7B43F00803DBB2FB723C
:10018C0007F108026423009304234221034802F080
:10019C0093F800BF1037BD4680BD00BF280100207A
:1001AC0080B586B002AF0346FB71FB7923F00F03D9
:1001BC00FB73FB791B01BB73FB7B43F00D03DBB2C1
:1001CC003B72FB7B43F00903DBB27B72BB7B43F0DE
:1001DC000D03DBB2BB72BB7B43F00903DBB2FB72DA
:1001EC0007F108026423009304234221034802F020
:1001FC0063F800BF1037BD4680BD00BF280100204A
:10020C0080B500AF3320FFF79BFF3220FFF798FF3C
:10021C00322001F06BFB2820FFF792FF322001F017
:10022C0065FB0120FFF78CFF322001F05FFB0620FD
:10023C00FFF786FF322001F059FB0C20FFF780FFFF
:10024C00322001F053FB0220FFF77AFF322001F03D
:10025C004DFB8020FFF774FF00BF80BD80B582B0DE
:10026C0000AF786006E07B685A1C7A601B781846F1
:10027C00FFF796FF7B681B78002BF4D100BF00BF03
:10028C000837BD4680BD80B584B000AF786039605A
:10029C007B68012B08D17B68DAB23B68DBB2134474
:1002AC00DBB27F33FB7303E03B68DBB2403BFB7399
:1002BC00FB7B1846FFF744FF00BF1037BD4680BDDF
:1002CC0080B500AF00210020FFF7DDFF0C48FFF7E1
:1002DC00C5FF08210020FFF7D6FF0A48FFF7BEFF35
:1002EC0000210120FFF7CFFF0748FFF7B7FF0821D8
:1002FC000120FFF7C8FF0548FFF7B0FF00BF80BD26
:10030C00585E0008C4000020605E0008B0000020A9
:10031C0080B584B002AFA8233B7100237B7100230E
:10032C00BB713A1DFF230093032370210D4801F08C
:10033C00C3FF0A2000F0FCFFBE233B7108237B7136
:10034C000023BB713A1DFF23009303237021054842
:10035C0001F0B2FF0A2000F0EBFF00BF0837BD46EA
:10036C0080BD00BF2801002080B586B002AF0346D7
:10037C00FB71FB793B7300237B730023BB7307F189
:10038C000C02FF23009303237021144801F094FF07
:10039C000A2000F0CDFF07F10802FF23009303238E
:1003AC0071210E4802F086F8FB7963F04F03DBB243
:1003BC003B737B7A7B73BB7ABB730A2000F0B8FF6C
:1003CC0007F10C02FF23009303237021034801F073
:1003DC0073FF00BF1037BD4680BD00BF2801002051
:1003EC0080B584B002AF3A1DFF2300930123712125
:1003FC001B4802F05FF83B7903F01803182B0DD063
:10040C001B20FFF7B1FF1C20FFF7AEFF1E20FFF7EC
:10041C00ABFF00220221134801F0D0FD3B7903F021
:10042C001803182B04D1012202210E4801F0C6FD3D
:10043C000D4A3B461268114619800233120C1A7091
:10044C003A46FF23009303237021054801F034FF43
:10045C00502000F06DFF00BF0837BD4680BD00BFC7
:10046C002801002000080140685E000880B588B0B3
:10047C0002AF7860FFF7B4FF00237B6100233B6180
:10048C0007F10802FF23009307237121244802F08F
:10049C0011F87B7A1A463B6913431B023B61BB7A0A
:1004AC001A463B6913431B023B61FB7A1A463B69B4
:1004BC0013433B613B691B093B613B694FF47A7207
:1004CC0002FB03F31B0D3B613B699AB27B681A80FC
:1004DC00FB7A1A467B6913431B027B613B7B1A46F2
:1004EC007B6913431B027B617B7B1A467B6913433D
:1004FC007B617B69C3F313037B617B694FF4FA6205
:10050C0002FB03F31B0DA3F5FA737B617B680233CB
:10051C007A6992B21A8000BF1837BD4680BD00BF01
:10052C002801002080B500AF1C48FFF79FFF1B4B34
:10053C005B881B4AA2FB0323DB089BB21846174BB4
:10054C005A88174BA3FB0213D9080B469B000B448C
:10055C005B00D31A9BB202461249134804F0A0FF69
:10056C000E4B1B880E4AA2FB0323DB089BB21846DA
:10057C000A4B1A880A4BA3FB0213D9080B469B00A3
:10058C000B445B00D31A9BB202460849084804F09E
:10059C0087FFFFF795FE00BF80BD00BF90000020D5
:1005AC00CDCCCCCC6C5E0008B0000020745E000892
:1005BC00C400002080B500AF064804F03BFF0346A2
:1005CC00054A1360054804F035FF0346044A1360DE
:1005DC0000BF80BDB0000020D8000020C400002067
:1005EC00DC00002080B500AF614B1B68013B032B86
:1005FC0000F2B58001A252F823F000BF19060008E2
:10060C00250600089906000801070008FFF78AFF75
:10061C00574B04221A60A9E0564B1B68012B40F083
:10062C00A080FFF77FFF544B1B68002B07DD524B5C
:10063C001B681A2B03DC4E4B03221A600AE04E4B4C
:10064C001B681A2B06DD4C4B1B681B2B02DC484B22
:10065C0004221A60494B1B68012B07D1484B1B68BD
:10066C0040F2E7325A63022001F040F901221021D6
:10067C00444801F0A3FC01224FF48061414801F091
:10068C009DFC4FF4FA7000F053FE6AE0394B1B6886
:10069C00012B68D1FFF746FF374B1B681B2B03DD83
:1006AC00334B02221A600AE0334B1B681A2B06DD0F
:1006BC00314B1B681B2B02DC2D4B04221A602F4B79
:1006CC001B68012B06D12E4B1B6800225A6302209B
:1006DC0001F00CF9012210212A4801F06FFC0022D4
:1006EC004FF48061274801F069FC4FF4FA7000F078
:1006FC001FFE38E01F4B1B68012B36D1FFF712FF92
:10070C001D4B1B68002B07DD1B4B1B681A2B03DCD6
:10071C00174B03221A6006E0174B1B681B2B02DDDC
:10072C00134B02221A60154B1B68012B07D1144B7B
:10073C001B6840F2F3125A63022001F0D7F8002232
:10074C001021104801F03AFC01224FF480610D4851
:10075C0001F034FC4FF4FA7000F0EAFD05E000BF44
:10076C0004E000BF02E000BF00E000BF00BF80BD9E
:10077C000000002098000020D8000020A0000020DD
:10078C00E0000020000C014080B500AF4FF47A73FC
:10079C0014220649064804F088F84FF47A731422A0
:1007AC000449054804F081F800BF80BDB00000206A
:1007BC000C020020C40000207C01002080B500AF9A
:1007CC0001F032F800F03CF800F0ECF900F07AF8A7
:1007DC0000F048F900F0BCF900F090F900F0A0F836
:1007EC00FFF70EFDFFF794FD0F4803F0B3F86420FC
:1007FC0000F09EFD0D4B01221A600A2200210C48CC
:10080C0000F0C0FA0A2200210A4800F0BBFA4FF4AB
:10081C00FA720021084800F0B5FA0021074803F0ED
:10082C0043F900F095FAFCE7C40100200000002019
:10083C00F1050008C105000895070008E00000203C
:10084C0080B590B000AF07F118032822002118469C
:10085C0004F01EFE3B1D00221A605A609A60DA609A
:10086C001A610223BB610123BB621023FB620223CA
:10087C007B630023BB634FF46013FB6307F1180326
:10088C00184602F009FC0346002B01D000F035FAA3
:10089C000F237B600223BB600023FB604FF480635B
:1008AC003B6100237B613B1D0221184602F074FE64
:1008BC000346002B01D000F020FA00BF4037BD46A4
:1008CC0080BD000080B500AF124B134A1A60114B6B
:1008DC00124A5A600F4B00229A600E4B0022DA60CB
:1008EC000C4B4FF480421A610A4B00225A61094B9F
:1008FC0000229A61074B0022DA61064B00221A6231
:10090C00044801F095FB0346002B01D000F0F5F9EB
:10091C0000BF80BD2801002000540040A0860100CB
:10092C0080B596B000AF07F1480300221A605A60F8
:10093C009A60DA6007F1400300221A605A6007F1EE
:10094C00240300221A605A609A60DA601A615A61B4
:10095C009A613B1D20220021184604F099FD3F4B63
:10096C003F4A1A603D4B40F27F225A603B4B0022BB
:10097C009A603A4B40F2E732DA60384B00221A6147
:10098C00364B00225A61354B00229A61334802F0F3
:10099C0091FF0346002B01D000F0AFF94FF48053C8
:1009AC00BB6407F1480319462C4803F0D1FA0346FF
:1009BC00002B01D000F0A1F9284803F01DF80346E4
:1009CC00002B01D000F099F900233B6400237B64D9
:1009DC0007F140031946214803F056FE0346002B4D
:1009EC0001D000F08AF960237B62C723BB6200232D
:1009FC00FB6200233B6300237B630023BB63002368
:100A0C00FB6307F1240300221946144803F0DEF9B6
:100A1C000346002B01D000F070F900237B6000230B
:100A2C00BB600023FB6000233B6100237B614FF420
:100A3C000053BB6100233B623B1D1946074803F082
:100A4C0081FE0346002B01D000F057F9034800F05B
:100A5C0073FD00BF5837BD4680BD00BFE0000020CD
:100A6C00002C014080B586B000AF07F108030022CE
:100A7C001A605A609A60DA603B4600221A605A602B
:100A8C001D4B4FF080421A601B4B41F6FF025A601F
:100A9C00194B00229A60184B6322DA60164B002225
:100AAC001A61154B00229A61134802F003FF0346AA
:100ABC00002B01D000F021F94FF48053BB6007F1FB
:100ACC00080319460C4803F043FA0346002B01D0E7
:100ADC0000F013F900233B6000237B603B46194672
:100AEC00054803F0D1FD0346002B01D000F005F9B9
:100AFC0000BF1837BD4680BDC401002080B500AFD3
:100B0C00114B124A1A60104B4FF4E1325A600E4BE3
:100B1C0000229A600C4B0022DA600B4B00221A6107
:100B2C00094B0C225A61084B00229A61064B002299
:100B3C00DA61054803F069FE0346002B01D000F092
:100B4C00DCF800BF80BD00BF7C01002000380140F4
:100B5C0080B500AF114B124A1A60104B4FF4E132C2
:100B6C005A600E4B00229A600C4B0022DA600B4B41
:100B7C0000221A61094B0C225A61084B00229A611F
:100B8C00064B0022DA61054803F03FFE0346002BBA
:100B9C0001D000F0B2F800BF80BD00BF0C020020F5
:100BAC000044004080B588B000AF07F1100300226C
:100BBC001A605A609A60DA60424B9B69414A43F072
:100BCC00100393613F4B9B6903F01003FB60FB68C0
:100BDC003C4B9B693B4A43F020039361394B9B6927
:100BEC0003F02003BB60BB68364B9B69354A43F06E
:100BFC0004039361334B9B6903F004037B607B68B4
:100C0C00304B9B692F4A43F0080393612D4B9B6932
:100C1C0003F008033B603B68002223212A4801F0C3
:100C2C00CDF900224FF48261284801F0C7F9002267
:100C3C004FF40071264801F0C1F94FF400533B61A9
:100C4C00244B7B610023BB6107F11003194620483C
:100C5C0001F030F823233B6101237B610023BB614E
:100C6C000223FB6107F110031946174801F022F823
:100C7C004FF482633B6101237B610023BB61022340
:100C8C00FB6107F110031946104801F013F84FF4FB
:100C9C0000733B6101237B610023BB610223FB6179
:100CAC0007F1100319460A4801F004F8002200214C
:100CBC00282000F016FF282000F02FFF00BF20375F
:100CCC00BD4680BD0010024000080140000C0140F0
:100CDC00001001400000111080B582B000AF7860A8
:100CEC007B681B68B3F1804F01D100F00BF800F06A
:100CFC003BFB00BF0837BD4680BD80B400AF72B669
:100D0C0000BFFEE780B400AF104B1B68002B18D05F
:100D1C000E4B9B68002B0CD00C4B9B680A2B05D9F7
:100D2C000A4B9B680A3B094A936002E0074B00227E
:100D3C009A60064B9B68002B04D1044B01221A7459
:100D4C0000E000BFBD4680BC704700BF54020020CD
:100D5C0080B500AF0A4B1B7C002B0FD0084B1B68D7
:100D6C009847074BDB68002B02D000F0AFF906E088
:100D7C00034B1B79184600F00BF900E000BF80BD57
:100D8C0054020020B0B489B000AFF860B9607A604A
:100D9C007E4BD3F87C31002B01D00023F1E07B4B50
:100DAC0093F880317B760023FB610023FB76E3E034
:100DBC00FA7E764913469B0013449B000B44083380
:100DCC001B68FA691344FB61FA69BB689A420AD83A
:100DDC00FA7E6E4913469B0013449B000B441B6820
:100DEC00002B40F0C6801323BB7617E0BB7E5A1E47
:100DFC00B97E66480B469B000B449B001844634924
:100E0C0013469B0013449B000B4404461D460FCD18
:100E1C000FC42B682360BB7E013BBB76BA7EFB7E86
:100E2C009A42E3D8FA7E594913469B0013449B001F
:100E3C000B44FA681A60FA7E544913469B0013441B
:100E4C009B000B4404337A7E1A70FA7E4F4913468A
:100E5C009B0013449B000B440C337A681A60FA7E97
:100E6C004A4913469B0013449B000B441033002249
:100E7C001A70FA69BB689A4250D9FA69BB68D31ADE
:100E8C007B61FB7E5A1C414913469B0013449B001B
:100E9C000B44083319687B69FA7EC91A3B48134620
:100EAC009B0013449B00034408331960FA7E3749B6
:100EBC0013469B0013449B000B4408331B68002B08
:100ECC0009D1FA7E314913469B0013449B000B4415
:100EDC00103301221A70FB7E5A1C79692B48134679
:100EEC009B0013449B00034408331960FB7E5A1C7F
:100EFC00264913469B0013449B000B4408331B6884
:100F0C00002B2CD1FB7E5A1C204913469B0013440A
:100F1C009B000B44103301221A7020E0FA7EB96852
:100F2C00FB69C91A194813469B0013449B000344E0
:100F3C0008331960FA7E154913469B0013449B0035
:100F4C000B4408331B68002B09D1FA7E0F4913465A
:100F5C009B0013449B000B44103301221A70FA7E41
:100F6C000A4913469B0013449B000B4404331B7823
:100F7C0007E0FB7E0133FB76FB7E132B7FF618AF6D
:100F8C00002318462437BD46B0BC704754020020DD
:100F9C00B0B485B000AF0346FB710023FB7388E04F
:100FAC00FA7B494913469B0013449B000B441B6876
:100FBC00002B01D1002381E0FA7B434913469B00AF
:100FCC0013449B000B4404331B78FA799A426DD17D
:100FDC00FA7B3D4913469B0013449B000B4404339E
:100FEC001B787B73FB7B5A1C374913469B001344BD
:100FFC009B000B441B68002B1DD0FB7B5A1C3249F9
:10100C0013469B0013449B000B4408331968FA7B6E
:10101C002D4813469B0013449B00034408331B6864
:10102C00FA7B01321944284813469B0013449B0059
:10103C00034408331960FB7BBB7317E0BB7B5A1C62
:10104C00B97B21480B469B000B449B0018441E495E
:10105C0013469B0013449B000B4404461D460FCDC6
:10106C000FC42B682360BB7B0133BB73BB7B122B80
:10107C00E4D9154B0022C3F87C21134A7B7B82F800
:10108C008031114B0022C3F884210F4B0022C3F88E
:10109C0088210D4B002283F88C210B4BD3F87C312B
:1010AC00002B0CBF01230023DBB207E0FB7B0133D9
:1010BC00FB73FB7B132B7FF673AF0023184614379F
:1010CC00BD46B0BC704700BF54020020B0B489B01C
:1010DC0000AF964B1B68002B01D1002320E1934BF2
:1010EC003C461D460FCD0FC42B6823600023FB61CB
:1010FC000023FB760FE1FB7E132B0AD0FB7E5A1CE0
:10110C008A4913469B0013449B000B441B68002B1D
:10111C004AD1FA7E3968854813469B0013449B00DC
:10112C0003441960FA7E3879804913469B001344B6
:10113C009B000B44043302461A70FA7EF9687B4814
:10114C0013469B0013449B0003440C331960FA7E36
:10115C00764913469B0013449B000B44103300222A
:10116C001A70F968FA7EFB69C91A704813469B001D
:10117C0013449B00034408331960FA7E6B491346F1
:10118C009B0013449B000B4408331B68002B09D1B4
:10119C00FA7E664913469B0013449B000B441033A4
:1011AC0001221A700123BBE0FB7E5A1C5F491346D7
:1011BC009B0013449B000B4408331B68FA691344CF
:1011CC00FB61FB68FA699A4240F28D80FA7E3968BD
:1011DC00564813469B0013449B0003441960FA7E47
:1011EC003879524913469B0013449B000B4404333B
:1011FC0002461A70FA7EF9684C4813469B00134459
:10120C009B0003440C331960FA7E484913469B003B
:10121C0013449B000B44103300221A70FB68FA69CC
:10122C00D31A7B61FB7E5A1C404913469B00134426
:10123C009B000B44083319687B69FA7EC91A3B483A
:10124C0013469B0013449B00034408331960FA7E39
:10125C00364913469B0013449B000B4408331B6810
:10126C00002B09D1FA7E314913469B0013449B0095
:10127C000B44103301221A70FB7E5A1C2B49134667
:10128C009B0013449B000B4408331968FA7E2748D3
:10129C0013469B0013449B00034408331B68FA7EDF
:1012AC000132C91A214813469B0013449B00034486
:1012BC0008331960FB7E5A1C1C4913469B001344CF
:1012CC009B000B4408331B68002B0AD1FB7E5A1C75
:1012DC00164913469B0013449B000B441033012208
:1012EC001A7001231CE0FB7E5A1CF97E0F480B463A
:1012FC009B000B449B0018440C4913469B00134461
:10130C009B000B4404461D460FCD0FC42B68236075
:10131C00FB7E0133FB76FB7E132B7FF6ECAE0023BA
:10132C0018462437BD46B0BC704700BF540200209D
:10133C0080B483B000AF78607B68084A82FB0312EC
:10134C009210DB17D31A064A1360064B00221A6060
:10135C0000BF0C37BD4680BC704700BF6766666631
:10136C00940000209800002080B400AF114B1B6843
:10137C00002B0BDD0F4B1B68013B0E4A13600D4B12
:10138C001B68002B02DC0C4B01221A600B4B1B68F8
:10139C00002B0BDD094B1B68013B084A1360074B04
:1013AC001B68002B02DC064B01221A6000BFBD46F5
:1013BC0080BC704794000020980000209C00002006
:1013CC00A000002080B485B000AF154B9B69144A77
:1013DC0043F001039361124B9B6903F00103BB6063
:1013EC00BB680F4BDB690E4A43F08053D3610C4B47
:1013FC00DB6903F080537B607B680A4B5B68FB60A6
:10140C00FB6823F0E063FB60FB6843F00073FB6058
:10141C00044AFB68536000BF1437BD4680BC70475C
:10142C00001002400000014080B58AB000AF786027
:10143C0007F1140300221A605A609A60DA607B6824
:10144C001B681D4A934232D11C4B9B691B4A43F0CB
:10145C0008039361194B9B6903F008033B613B69DB
:10146C004FF440737B611223BB6103233B6207F192
:10147C0014031946124800F01DFC124B5B687B628A
:10148C007B6A43F0E0637B627B6A43F002037B621E
:10149C000C4A7B6A5360094BDB69084A43F400131E
:1014AC00D361064BDB6903F40013FB60FB6800BFE0
:1014BC002837BD4680BD00BF0054004000100240DC
:1014CC00000C01400000014080B584B000AF786092
:1014DC007B681B68164A93420CD1164B9B69154AC4
:1014EC0043F400639361134B9B6903F40063FB604B
:1014FC00FB6818E07B681B68B3F1804F13D10D4B70
:10150C00DB690C4A43F00103D3610A4BDB6903F03E
:10151C000103BB60BB68002200211C2000F0E1FA33
:10152C001C2000F0FAFA00BF1037BD4680BD00BF8A
:10153C00002C01400010024080B588B000AF7860EC
:10154C0007F1100300221A605A609A60DA607B6817
:10155C001B68104A934218D10F4B9B690E4A43F0FB
:10156C00040393610C4B9B6903F00403FB60FB6861
:10157C004FF480733B6102237B610223FB6107F113
:10158C0010031946054800F095FB00BF2037BD46F7
:10159C0080BD00BF002C014000100240000801403B
:1015AC0080B58AB000AF786007F1180300221A608A
:1015BC005A609A60DA607B681B683F4A93423AD162
:1015CC003E4B9B693D4A43F4804393613B4B9B6983
:1015DC0003F480437B617B69384B9B69374A43F04A
:1015EC0004039361354B9B6903F004033B613B6936
:1015FC004FF40073BB610223FB6103237B6207F191
:10160C00180319462E4800F055FB4FF48063BB615C
:10161C000023FB6100233B6207F11803194628489D
:10162C0000F048FB00220021252000F05AFA25206A
:10163C0000F073FA3CE07B681B68224A934237D176
:10164C001E4BDB691D4A43F40033D3611B4BDB6932
:10165C0003F40033FB60FB68184B9B69174A43F09B
:10166C0004039361154B9B6903F00403BB60BB68D7
:10167C000423BB610223FB6103237B6207F1180384
:10168C0019460F4800F016FB0823BB610023FB61D1
:10169C0000233B6207F118031946094800F00AFBC6
:1016AC0000220021262000F01CFA262000F035FA3A
:1016BC0000BF2837BD4680BD0038014000100240F5
:1016CC00000801400044004080B400AFFEE780B445
:1016DC0000AFFEE780B400AFFEE780B400AFFEE7DA
:1016EC0080B400AFFEE780B400AF00BFBD4680BC45
:1016FC00704780B400AF00BFBD4680BC704780B45B
:10170C0000AF00BFBD4680BC704780B500AF00F095
:10171C00D1F800BF80BD000080B500AF024802F0D8
:10172C0065FA00BF80BD00BFC401002080B500AFCA
:10173C00024803F045F900BF80BD00BF7C010020CA
:10174C0080B500AF024803F03BF900BF80BD00BF7D
:10175C000C02002080B500AF4FF4005000F046FCA6
:10176C0000BF80BD80B586B000AF7860144A154BC1
:10177C00D31A7B617B693B61134B1B68002B02D135
:10178C00114B124A1A60104B1A687B6813443A6961
:10179C009A4207D203F052FE03460C221A604FF015
:1017AC00FF3309E0084B1B68FB60074B1A687B682A
:1017BC001344054A1360FB6818461837BD4680BDB4
:1017CC000050002000040000A4000020F8030020BA
:1017DC0080B400AF00BFBD4680BC7047FFF7F8FF78
:1017EC000B480C490C4A002302E0D458C450043373
:1017FC00C4188C42F9D3094A094C002301E0136048
:10180C000432A242FBD303F01FFEFEF7D7FF704752
:10181C000000002074000020E85F00087400002025
:10182C00F8030020FEE7000080B500AF084B1B68F2
:10183C00074A43F010031360032000F047F900201F
:10184C0000F008F8FFF7BEFD0023184680BD00BF6E
:10185C000020024080B582B000AF7860124B1A684D
:10186C00124B1B7819464FF47A73B3FBF1F3B2FBAE
:10187C00F3F3184600F05FF90346002B01D0012367
:10188C000EE07B680F2B0AD8002279684FF0FF30EE
:10189C0000F027F9064A7B681360002300E001235F
:1018AC0018460837BD4680BD040000200C000020FF
:1018BC000800002080B400AF054B1B781A46054B7E
:1018CC001B681344034A136000BFBD4680BC7047BD
:1018DC000C000020E403002080B400AF024B1B6816
:1018EC001846BD4680BC7047E403002080B584B028
:1018FC0000AF7860FFF7F0FFB8607B68FB60FB68B7
:10190C00B3F1FF3F05D00A4B1B781A46FB68134412
:10191C00FB6000BFFFF7E0FF0246BB68D31AFA6812
:10192C009A42F7D800BF00BF1037BD4680BD00BF3C
:10193C000C00002080B485B000AF78607B6803F0A9
:10194C000703FB600C4BDB68BB60BA684FF6FF0308
:10195C001340BB60FB681A02BB68134343F0BF63C0
:10196C0043F40033BB60044ABB68D36000BF143738
:10197C00BD4680BC704700BF00ED00E080B400AFF6
:10198C00044BDB681B0A03F007031846BD4680BCFA
:10199C00704700BF00ED00E080B483B000AF034699
:1019AC00FB7197F90730002B0BDBFB7903F01F025F
:1019BC00064997F907305B09012000FA02F241F859
:1019CC00232000BF0C37BD4680BC704700E100E00F
:1019DC0080B483B000AF03463960FB7197F90730D0
:1019EC00002B0ADB3B68DAB20C4997F9073012017D
:1019FC00D2B20B4483F800230AE03B68DAB2084900
:101A0C00FB7903F00F03043B1201D2B20B441A769C
:101A1C0000BF0C37BD4680BC704700BF00E100E042
:101A2C0000ED00E080B489B000AFF860B9607A6076
:101A3C00FB6803F00703FB61FB69C3F10703042B8D
:101A4C0028BF0423BB61FB690433062B02D9FB6955
:101A5C00033B00E000237B614FF0FF32BB6902FACD
:101A6C0003F3DA43BB681A407B699A404FF0FF31AD
:101A7C007B6901FA03F3D9437B680B401343184687
:101A8C002437BD4680BC704780B582B000AF78600B
:101A9C007B68013BB3F1807F01D301230FE00A4A3D
:101AAC007B68013B53600F214FF0FF30FFF790FF35
:101ABC00054B00229A60044B07221A60002318463B
:101ACC000837BD4680BD00BF10E000E080B582B095
:101ADC0000AF78607868FFF72DFF00BF0837BD4670
:101AEC0080BD80B586B000AF0346B9607A60FB73E9
:101AFC0000237B61FFF742FF78617A68B9687869E7
:101B0C00FFF790FF024697F90F3011461846FFF782
:101B1C005FFF00BF1837BD4680BD80B582B000AFF7
:101B2C000346FB7197F907301846FFF735FF00BFE6
:101B3C000837BD4680BD80B582B000AF786078684C
:101B4C00FFF7A2FF034618460837BD4680BD80B498
:101B5C0085B000AF78600023FB737B6893F821306D
:101B6C00DBB2022B08D07B6804229A637B680022CC
:101B7C0083F82020012320E07B681B681A687B68AF
:101B8C001B6822F00E021A607B681B681A687B685F
:101B9C001B6822F001021A607B681A6C7B68DB6B95
:101BAC00012101FA02F25A607B68012283F821209C
:101BBC007B68002283F82020FB7B18461437BD4637
:101BCC0080BC704780B584B000AF78600023FB7395
:101BDC007B6893F82130DBB2022B05D07B680422A2
:101BEC009A630123FB7351E07B681B681A687B685E
:101BFC001B6822F00E021A607B681B681A687B68EF
:101C0C001B6822F001021A607B681B68224A93420F
:101C1C0029D07B681B68214A934222D07B681B68C1
:101C2C001F4A93421AD07B681B681E4A934212D0FB
:101C3C007B681B681C4A93420AD07B681B681B4A52
:101C4C00934202D14FF480130EE04FF080730BE0FF
:101C5C004FF4803308E04FF4805305E04FF4807369
:101C6C0002E0102300E00123114A53607B6801223B
:101C7C0083F821207B68002283F820207B685B6B33
:101C8C00002B03D07B685B6B78689847FB7B18460E
:101C9C001037BD4680BD00BF080002401C0002404A
:101CAC003000024044000240580002406C000240E8
:101CBC000000024080B48BB000AF78603960002324
:101CCC007B6200233B6269E101227B6A02FA03F327
:101CDC00FB613B681B68FA691340BB61BA69FB691D
:101CEC009A4240F058813B685B689A4A93425ED0B6
:101CFC00984A934275D8984A934258D0964A934240
:101D0C006FD8964A934252D0944A934269D8944AD7
:101D1C0093424CD0924A934263D8924A934246D013
:101D2C00904A93425DD8122B2AD8122B59D801A273
:101D3C0052F823F0BB1D0008951D0008A71D0008D4
:101D4C00E91D0008EF1D0008EF1D0008EF1D00083D
:101D5C00EF1D0008EF1D0008EF1D0008EF1D000827
:101D6C00EF1D0008EF1D0008EF1D0008EF1D000817
:101D7C00EF1D0008EF1D00089D1D0008B11D000897
:101D8C00794A934213D02CE03B68DB683B6229E034
:101D9C003B68DB6804333B6224E03B68DB68083358
:101DAC003B621FE03B68DB680C333B621AE03B682C
:101DBC009B68002B02D104233B6213E03B689B68B9
:101DCC00012B05D108233B627B68FA691A6109E093
:101DDC0008233B627B68FA695A6103E000233B628B
:101DEC0000E000BFBB69FF2B01D87B6801E07B687A
:101DFC0004337B61BB69FF2B02D87B6A9B0002E03A
:101E0C007B6A083B9B003B617B691A680F213B692D
:101E1C0001FA03F3DB431A40396A3B6901FA03F315
:101E2C001A437B691A603B685B6803F08053002B94
:101E3C0000F0B1804D4B9B694C4A43F00103936118
:101E4C004A4B9B6903F00103BB60BB68484A7B6A41
:101E5C009B08023352F82330FB607B6A03F00303C8
:101E6C009B000F2202FA03F3DB43FA681340FB607A
:101E7C007B68404A934213D07B683F4A93420DD013
:101E8C007B683E4A934207D07B683D4A934201D11E
:101E9C00032306E0042304E0022302E0012300E014
:101EAC0000237A6A02F0030292009340FA6813430B
:101EBC00FB602F497B6A9B080233FA6841F82320A8
:101ECC003B685B6803F48013002B06D02D4B9A689B
:101EDC002C49BB6913438B6006E02A4B9A68BB699B
:101EEC00DB43284913408B603B685B6803F40013A9
:101EFC00002B06D0234BDA682249BB691343CB6015
:101F0C0006E0204BDA68BB69DB431E491340CB600B
:101F1C003B685B6803F40033002B06D0194B5A68FE
:101F2C001849BB6913434B6006E0164B5A68BB69F2
:101F3C00DB43144913404B603B685B6803F480330C
:101F4C00002B21D00F4B1A680E49BB6913430B6051
:101F5C0021E000BF00003210000031100000221000
:101F6C00000021100000121000001110001002409F
:101F7C000000014000080140000C0140001001402D
:101F8C0000140140000401400B4B1A68BB69DB4391
:101F9C00094913400B607B6A01337B623B681A680A
:101FAC007B6A22FA03F3002B7FF48EAE00BF00BFD6
:101FBC002C37BD4680BC70470004014080B483B010
:101FCC0000AF78600B467B8013467B707B78002BD0
:101FDC0003D07A887B681A6103E07B881A047B68DB
:101FEC001A6100BF0C37BD4680BC704780B582B00B
:101FFC0000AF0346FB80084B5A69FB881340002B4B
:10200C0006D0054AFB885361FB88184600F006F899
:10201C0000BF0837BD4680BD0004014080B483B0CA
:10202C0000AF0346FB8000BF0C37BD4680BC704739
:10203C0080B584B000AF78607B68002B01D10123A0
:10204C002BE17B6893F83D30DBB2002B06D17B682B
:10205C00002283F83C207868FFF7E6F97B6824229D
:10206C0083F83D207B681B681A687B681B6822F02C
:10207C0001021A607B681B681A687B681B6842F453
:10208C0000421A607B681B681A687B681B6822F424
:10209C0000421A6001F0C8FBF8607B685B68814AFB
:1020AC00934207D8FB68804A934294BF01230023D4
:1020BC00DBB206E0FB687D4A934294BF0123002308
:1020CC00DBB2002B01D00123E7E0FB68784AA2FBCE
:1020DC0003239B0CBB607B681B685B6823F03F0190
:1020EC007B681B68BA680A435A607B681B681B6A6A
:1020FC0023F03F017B685B686A4A934202D8BB6855
:10210C00013309E0BB684FF4967202FB03F3694A92
:10211C00A2FB03239B0901337A6812680B431362F9
:10212C007B681B68DB6923F44F4222F0FF027B685B
:10213C005B685C498B4219D8FB68591E7B685B68ED
:10214C005B00B1FBF3F3591C40F6FC730B40002B06
:10215C000AD0FB68591E7B685B685B00B1FBF3F32C
:10216C000133C3F30B0351E004234FE07B689B68FE
:10217C00002B11D1FB68581E7B6859680B465B001D
:10218C000B44B0FBF3F30133C3F30B03002B0CBF75
:10219C0001230023DBB212E0FB68581E7B685968F0
:1021AC000B469B000B4499000B44B0FBF3F301333B
:1021BC00C3F30B03002B0CBF01230023DBB2002B5A
:1021CC0001D0012322E07B689B68002B0ED1FB68B9
:1021DC00581E7B6859680B465B000B44B0FBF3F34D
:1021EC000133C3F30B0343F400430FE0FB68581EA9
:1021FC007B6859680B469B000B4499000B44B0FB61
:10220C00F3F30133C3F30B0343F4404379680968D8
:10221C001343CB617B681B681B6823F0C0017B6890
:10222C00DA697B681B6A1A437B681B680A431A606D
:10223C007B681B689B6823F4034323F0FF037A68D5
:10224C0011697A68D26811437A6812680B439360FB
:10225C007B681B68DB6823F0FF017B685A697B682D
:10226C009B691A437B681B680A43DA607B681B68AE
:10227C001A687B681B6842F001021A607B680022B6
:10228C001A647B68202283F83D207B6800221A6345
:10229C007B68002283F83E20002318461037BD4689
:1022AC0080BD00BFA08601007F841E00FF083D009A
:1022BC0083DE1B43D34D621080B588B002AFF8604B
:1022CC007A601A460B467B8113463B81FFF704FB71
:1022DC007861FB6893F83D30DBB2202B40F0E08056
:1022EC007B690093192301227049F86800F09EFC69
:1022FC000346002B01D00223D3E0FB6893F83C305B
:10230C00012B01D10223CCE0FB68012283F83C2095
:10231C00FB681B681B6803F00103012B07D0FB68EB
:10232C001B681A68FB681B6842F001021A60FB68A4
:10233C001B681A68FB681B6822F400621A60FB6851
:10234C00212283F83D20FB68102283F83E20FB6895
:10235C0000221A64FB687A685A62FB683A895A85CB
:10236C00FB685B8D9AB2FB681A85FB68504ADA628F
:10237C0079897B693A6AF86800F008FB0346002B00
:10238C0001D001238DE000233B61FB681B685B6976
:10239C003B61FB681B689B693B613B6966E07A6942
:1023AC00396AF86800F05CFD0346002B0DD0FB6821
:1023BC001B6C042B07D1FB681B681A68FB681B6835
:1023CC0042F400721A6001236BE0FB685B6A1A78B6
:1023DC00FB681B681A61FB685B6A5A1CFB685A62D3
:1023EC00FB685B8D9BB2013B9AB2FB685A85FB681C
:1023FC001B8D013B9AB2FB681A85FB681B685B69F5
:10240C0003F00403042B1BD1FB681B8D002B17D08E
:10241C00FB685B6A1A78FB681B681A61FB685B6A6D
:10242C005A1CFB685A62FB685B8D9BB2013B9AB2EB
:10243C00FB685A85FB681B8D013B9AB2FB681A85B9
:10244C007A69396AF86800F053FD0346002B0DD009
:10245C00FB681B6C042B07D1FB681B681A68FB68B4
:10246C001B6842F400721A6001231AE0FB681B8D92
:10247C00002B94D1FB681B681A68FB681B6842F43C
:10248C0000721A60FB68202283F83D20FB68002252
:10249C0083F83E20FB68002283F83C20002300E0F8
:1024AC00022318461837BD4680BD00BF020010003D
:1024BC000000FFFF80B58CB002AFF8607A601A465E
:1024CC000B467B8113463B8100233B62FFF704FAEA
:1024DC007862FB6893F83D30DBB2202B40F04B82E6
:1024EC007B6A0093192301227F49F86800F09EFB58
:1024FC000346002B01D002233EE2FB6893F83C30EC
:10250C00012B01D1022337E2FB68012283F83C2026
:10251C00FB681B681B6803F00103012B07D0FB68E9
:10252C001B681A68FB681B6842F001021A60FB68A2
:10253C001B681A68FB681B6822F400621A60FB684F
:10254C00222283F83D20FB68102283F83E20FB6892
:10255C0000221A64FB687A685A62FB683A895A85C9
:10256C00FB685B8D9AB2FB681A85FB685F4ADA627E
:10257C0079897B6A3A6BF86800F08AFA0346002B7B
:10258C0001D00123F8E1FB681B8D002B13D1002334
:10259C00FB61FB681B685B69FB61FB681B689B69E3
:1025AC00FB61FB69FB681B681A68FB681B6842F4DB
:1025BC0000721A60CCE1FB681B8D012B1ED1FB68ED
:1025CC001B681A68FB681B6822F480621A6072B67A
:1025DC0000BF0023BB61FB681B685B69BB61FB68C8
:1025EC001B689B69BB61BB69FB681B681A68FB684D
:1025FC001B6842F400721A6062B635E0FB681B8DF2
:10260C00022B1ED1FB681B681A68FB681B6842F41E
:10261C0000621A6072B600BF00237B61FB681B6806
:10262C005B697B61FB681B689B697B617B69FB68F1
:10263C001B681A68FB681B6822F480621A6062B619
:10264C0012E0FB681B681A68FB681B6842F4806226
:10265C001A6000233B61FB681B685B693B61FB688C
:10266C001B689B693B613B6972E1FB681B8D032B0B
:10267C0000F21F81FB681B8D012B23D17A6A396B09
:10268C00F86800F07DFC0346002B01D0012373E1B8
:10269C00FB681B681A69FB685B6AD2B21A70FB682C
:1026AC005B6A5A1CFB685A62FB681B8D013B9AB231
:1026BC00FB681A85FB685B8D9BB2013B9AB2FB6889
:1026CC005A8545E1FB681B8D022B52D17B6A009326
:1026DC003B6B00220649F86800F0A8FA0346002B71
:1026EC0008D0012348E100BF020010000000FFFFEA
:1026FC000400010072B600BFFB681B681A68FB6817
:10270C001B6842F400721A60FB681B681A69FB684C
:10271C005B6AD2B21A70FB685B6A5A1CFB685A621D
:10272C00FB681B8D013B9AB2FB681A85FB685B8DBD
:10273C009BB2013B9AB2FB685A8562B600BFFB683C
:10274C001B681A69FB685B6AD2B21A70FB685B6A19
:10275C005A1CFB685A62FB681B8D013B9AB2FB68E2
:10276C001A85FB685B8D9BB2013B9AB2FB685A855C
:10277C00EEE07B6A00933B6B00228149F86800F025
:10278C0055FA0346002B01D00123F5E0FB681B68CA
:10279C001A68FB681B6822F480621A6072B600BF6C
:1027AC00FB681B681A69FB685B6AD2B21A70FB681B
:1027BC005B6A5A1CFB685A62FB681B8D013B9AB220
:1027CC00FB681A85FB685B8D9BB2013B9AB2FB6878
:1027DC005A856C4B1B68DB086B4AA2FB03231A0A55
:1027EC0013469B001344DA00D31A3B623B6A013B4D
:1027FC003B623B6A002B18D1FB6800221A63FB6812
:10280C00202283F83D20FB68002283F83E20FB68E1
:10281C001B6C43F02002FB681A6462B600BFFB68B5
:10282C00002283F83C200123A6E0FB681B685B694F
:10283C0003F00403042BD9D1FB681B681A68FB68EE
:10284C001B6842F400721A60FB681B681A69FB680B
:10285C005B6AD2B21A70FB685B6A5A1CFB685A62DC
:10286C00FB681B8D013B9AB2FB681A85FB685B8D7C
:10287C009BB2013B9AB2FB685A8562B600BFFB68FB
:10288C001B681A69FB685B6AD2B21A70FB685B6AD8
:10289C005A1CFB685A62FB681B8D013B9AB2FB68A1
:1028AC001A85FB685B8D9BB2013B9AB2FB685A851B
:1028BC004EE07A6A396BF86800F062FB0346002B35
:1028CC0001D0012358E0FB681B681A69FB685B6A3E
:1028DC00D2B21A70FB685B6A5A1CFB685A62FB68BE
:1028EC001B8D013B9AB2FB681A85FB685B8D9BB212
:1028FC00013B9AB2FB685A85FB681B685B6903F065
:10290C000403042B24D1FB681B8D032B07D1FB681C
:10291C001B681A68FB681B6822F480621A60FB68EB
:10292C001B681A69FB685B6AD2B21A70FB685B6A37
:10293C005A1CFB685A62FB681B8D013B9AB2FB6800
:10294C001A85FB685B8D9BB2013B9AB2FB685A857A
:10295C00FB681B8D002B7FF488AEFB68202283F86C
:10296C003D20FB68002283F83E20FB68002283F8A0
:10297C003C20002300E0022318462837BD4680BDCA
:10298C00040001000400002089B5F81480B588B05B
:10299C0002AFF8607A603B600B467B81FB68DB6AB8
:1029AC007B617B69082B06D07B69012B03D07B698B
:1029BC0013F5803F08D1FB681B681A68FB681B681D
:1029CC0042F480721A600BE0FB681B6B122B07D170
:1029DC00FB681B681A68FB681B6842F480721A60FB
:1029EC003B6800937B6800224FF00111F86800F0FF
:1029FC001DF90346002B0DD0FB681B681B6803F404
:102A0C008073B3F5807F03D1FB684FF400721A64B6
:102A1C00032335E0FB681B69B3F5804F08D17B8934
:102A2C00DBB21A46FB681B6802F0FE021A611BE05F
:102A3C007B89DB11DBB203F00603DBB263F00F031F
:102A4C00DAB2FB681B681A613B687A680E49F86851
:102A5C0000F066F90346002B01D0012310E07B89BE
:102A6C00DAB2FB681B681A613B687A680749F86838
:102A7C0000F056F90346002B01D0012300E000239F
:102A8C0018461837BD4680BD080001000200010041
:102A9C0080B588B002AFF8607A603B600B467B81F2
:102AAC00FB68DB6A7B61FB681B681A68FB681B6848
:102ABC0042F480621A607B69082B06D07B69012B7B
:102ACC0003D07B6913F5803F08D1FB681B681A683B
:102ADC00FB681B6842F480721A600BE0FB681B6B8E
:102AEC00112B07D1FB681B681A68FB681B6842F442
:102AFC0080721A603B6800937B6800224FF00111D2
:102B0C00F86800F093F80346002B0DD0FB681B68A7
:102B1C001B6803F48073B3F5807F03D1FB684FF41B
:102B2C0000721A64032379E0FB681B69B3F5804FCC
:102B3C0008D17B89DBB243F00103DAB2FB681B6876
:102B4C001A615FE07B89DB11DBB203F00603DBB2B9
:102B5C0063F00F03DAB2FB681B681A613B687A6892
:102B6C003049F86800F0DCF80346002B01D0012353
:102B7C0054E07B89DAB2FB681B681A613B687A689F
:102B8C002949F86800F0CCF80346002B01D001234A
:102B9C0044E000233B61FB681B685B693B61FB689D
:102BAC001B689B693B613B69FB681B681A68FB6887
:102BBC001B6842F480721A603B6800937B680022A9
:102BCC004FF00111F86800F031F80346002B0DD0DE
:102BDC00FB681B681B6803F48073B3F5807F03D11B
:102BEC00FB684FF400721A64032317E07B89DB1136
:102BFC00DBB203F00603DBB263F00E03DAB2FB6860
:102C0C001B681A613B687A680749F86800F088F815
:102C1C000346002B01D0012300E00023184618378F
:102C2C00BD4680BD080001000200010080B584B0E3
:102C3C0000AFF860B9603B601346FB7148E03B683D
:102C4C00B3F1FF3F44D0FEF747FE0246BB69D31AEF
:102C5C003A689A4202D33B68002B39D1BB681B0CF3
:102C6C00DBB2012B0DD1FB681B685B69DA43BB68D7
:102C7C0013409BB2002B0CBF01230023DBB21A467E
:102C8C000CE0FB681B689B69DA43BB6813409BB282
:102C9C00002B0CBF01230023DBB21A46FB799A42AE
:102CAC0016D1FB6800221A63FB68202283F83D20B2
:102CBC00FB68002283F83E20FB681B6C43F020026B
:102CCC00FB681A64FB68002283F83C20012323E094
:102CDC00BB681B0CDBB2012B0DD1FB681B685B695D
:102CEC00DA43BB6813409BB2002B0CBF01230023BB
:102CFC00DBB21A460CE0FB681B689B69DA43BB68C5
:102D0C0013409BB2002B0CBF01230023DBB21A46ED
:102D1C00FB799A4293D0002318461037BD4680BDEC
:102D2C0080B584B000AFF860B9607A603B6071E048
:102D3C00FB681B685B6903F48063B3F5806F23D178
:102D4C00FB681B681A68FB681B6842F400721A6007
:102D5C00FB681B686FF480625A61FB6800221A637F
:102D6C00FB68202283F83D20FB68002283F83E207C
:102D7C00FB681B6C43F00402FB681A64FB680022BE
:102D8C0083F83C20012367E07B68B3F1FF3F41D01F
:102D9C00FEF7A2FD02463B68D31A7A689A4202D328
:102DAC007B68002B36D1BB681B0CDBB2012B0CD122
:102DBC00FB681B685B69DA43BB6813409BB2002B52
:102DCC0014BF01230023DBB20BE0FB681B689B697B
:102DDC00DA43BB6813409BB2002B14BF01230023C2
:102DEC00DBB2002B16D0FB6800221A63FB68202292
:102DFC0083F83D20FB68002283F83E20FB681B6CA7
:102E0C0043F02002FB681A64FB68002283F83C2024
:102E1C00012321E0BB681B0CDBB2012B0CD1FB683E
:102E2C001B685B69DA43BB6813409BB2002B14BF71
:102E3C0001230023DBB20BE0FB681B689B69DA43C0
:102E4C00BB6813409BB2002B14BF01230023DBB2E1
:102E5C00002B7FF46DAF002318461037BD4680BDA4
:102E6C0080B584B000AFF860B9607A6034E0F8687F
:102E7C0000F0E3F80346002B01D0012334E0BB68DB
:102E8C00B3F1FF3F28D0FEF727FD02467B68D31A2B
:102E9C00BA689A4202D3BB68002B1DD1FB681B6831
:102EAC005B6903F08003802B16D0FB6800221A6349
:102EBC00FB68202283F83D20FB68002283F83E202B
:102ECC00FB681B6C43F02002FB681A64FB68002251
:102EDC0083F83C20012307E0FB681B685B6903F067
:102EEC008003802BC3D1002318461037BD4680BD0C
:102EFC0080B584B000AFF860B9607A6034E0F868EF
:102F0C0000F09BF80346002B01D0012334E0BB6892
:102F1C00B3F1FF3F28D0FEF7DFFC02467B68D31AE3
:102F2C00BA689A4202D3BB68002B1DD1FB681B68A0
:102F3C005B6903F00403042B16D0FB6800221A63B0
:102F4C00FB68202283F83D20FB68002283F83E209A
:102F5C00FB681B6C43F02002FB681A64FB680022C0
:102F6C0083F83C20012307E0FB681B685B6903F0D6
:102F7C000403042BC3D1002318461037BD4680BD73
:102F8C0080B584B000AFF860B9607A6049E0FB6846
:102F9C001B685B6903F01003102B19D1FB681B68CD
:102FAC006FF010025A61FB6800221A63FB68202242
:102FBC0083F83D20FB68002283F83E20FB681A6CE6
:102FCC00FB681A64FB68002283F83C20012330E084
:102FDC00FEF782FC02467B68D31ABA689A4202D387
:102FEC00BB68002B1DD1FB681B685B6903F04003B9
:102FFC00402B16D0FB6800221A63FB68202283F852
:10300C003D20FB68002283F83E20FB681B6C43F0DC
:10301C002002FB681A64FB68002283F83C20012321
:10302C0007E0FB681B685B6903F04003402BAED1E3
:10303C00002318461037BD4680BD80B483B000AF66
:10304C0078607B681B685B6903F48063B3F5806F01
:10305C001BD17B681B686FF480625A617B6800220D
:10306C001A637B68202283F83D207B68002283F85A
:10307C003E207B681B6C43F004027B681A647B68FF
:10308C00002283F83C20012300E0002318460C3773
:10309C00BD4680BC7047000080B586B000AF78603C
:1030AC007B68002B01D101236CE27B681B6803F069
:1030BC000103002B00F08780924B5B6803F00C033C
:1030CC00042B0CD08F4B5B6803F00C03082B12D134
:1030DC008C4B5B6803F48033B3F5803F0BD1894B89
:1030EC001B6803F40033002B6CD07B685B68002BEF
:1030FC0068D1012346E27B685B68B3F5803F06D15B
:10310C00804B1B687F4A43F4803313602EE07B684E
:10311C005B68002B0CD17B4B1B687A4A23F4803301
:10312C001360784B1B68774A23F4802313601DE0EF
:10313C007B685B68B3F5A02F0CD1724B1B68714A8E
:10314C0043F4802313606F4B1B686E4A43F4803347
:10315C0013600BE06B4B1B686A4A23F480331360DB
:10316C00684B1B68674A23F4802313607B685B6899
:10317C00002B13D0FEF7B0FB386108E0FEF7ACFB78
:10318C0002463B69D31A642B01D90323FAE15D4B48
:10319C001B6803F40033002BF0D014E0FEF79CFB0B
:1031AC00386108E0FEF798FB02463B69D31A642BA2
:1031BC0001D90323E6E1534B1B6803F40033002BC6
:1031CC00F0D100E000BF7B681B6803F00203002B0A
:1031DC0063D04C4B5B6803F00C03002B0BD0494BBA
:1031EC005B6803F00C03082B1CD1464B5B6803F4A3
:1031FC008033002B16D1434B1B6803F00203002BCA
:10320C0005D07B681B69012B01D00123BAE13D4B32
:10321C001B6823F0F8027B685B69DB0039491343B8
:10322C000B603AE07B681B69002B20D0364B0122E7
:10323C001A60FEF751FB386108E0FEF74DFB0246C1
:10324C003B69D31A022B01D903239BE12D4B1B683D
:10325C0003F00203002BF0D02A4B1B6823F0F8027A
:10326C007B685B69DB00274913430B6015E0264B39
:10327C0000221A60FEF730FB386108E0FEF72CFBE9
:10328C0002463B69D31A022B01D903237AE11D4B69
:10329C001B6803F00203002BF0D17B681B6803F062
:1032AC000803002B3AD07B689B69002B19D0174B75
:1032BC0001221A60FEF710FB386108E0FEF70CFBE8
:1032CC0002463B69D31A022B01D903235AE10D4B59
:1032DC005B6A03F00203002BF0D0012000F0CCFA63
:1032EC001CE00A4B00221A60FEF7F6FA38610FE078
:1032FC00FEF7F2FA02463B69D31A022B08D90323D4
:10330C0040E100BF001002400000424280044242F3
:10331C009E4B5B6A03F00203002BE9D17B681B68B0
:10332C0003F00403002B00F0A6800023FB75974BE1
:10333C00DB6903F08053002B0DD1944BDB69934A6E
:10334C0043F08053D361914BDB6903F08053BB6036
:10335C00BB680123FB758E4B1B6803F48073002B39
:10336C0018D18B4B1B688A4A43F480731360FEF7A9
:10337C00B3FA386108E0FEF7AFFA02463B69D31A9C
:10338C00642B01D90323FDE0814B1B6803F480738C
:10339C00002BF0D07B68DB68012B06D17B4B1B6AC2
:1033AC007A4A43F0010313622DE07B68DB68002B43
:1033BC000CD1764B1B6A754A23F001031362734BD5
:1033CC001B6A724A23F0040313621CE07B68DB68FF
:1033DC00052B0CD16D4B1B6A6C4A43F00403136232
:1033EC006A4B1B6A694A43F0010313620BE0674B9B
:1033FC001B6A664A23F001031362644B1B6A634A1F
:10340C0023F0040313627B68DB68002B15D0FEF7F6
:10341C0063FA38610AE0FEF75FFA02463B69D31A99
:10342C0041F28832934201D90323ABE0574B1B6A1C
:10343C0003F00203002BEED014E0FEF74DFA3861D6
:10344C000AE0FEF749FA02463B69D31A41F2883288
:10345C00934201D9032395E04C4B1B6A03F0020302
:10346C00002BEED1FB7D012B05D1484BDB69474A84
:10347C0023F08053D3617B68DB69002B00F08180E3
:10348C00424B5B6803F00C03082B61D07B68DB6953
:10349C00022B46D13F4B00221A60FEF71DFA386111
:1034AC0008E0FEF719FA02463B69D31A022B01D940
:1034BC00032367E0354B1B6803F00073002BF0D13E
:1034CC007B681B6AB3F5803F08D1304B5B6823F4F3
:1034DC0000327B689B682D4913434B602B4B5B6818
:1034EC0023F474127B68196A7B685B6A0B43274967
:1034FC0013434B60274B01221A60FEF7EDF938613C
:10350C0008E0FEF7E9F902463B69D31A022B01D910
:10351C00032337E01D4B1B6803F00073002BF0D026
:10352C002FE01C4B00221A60FEF7D6F9386108E038
:10353C00FEF7D2F902463B69D31A022B01D90323B9
:10354C0020E0124B1B6803F00073002BF0D118E045
:10355C007B68DB69012B01D1012313E00B4B5B680A
:10356C00FB60FB6803F480327B681B6A9A4206D1CD
:10357C00FB6803F470127B685B6A9A4201D00123EA
:10358C0000E0002318461837BD4680BD00100240ED
:10359C00007000406000424280B584B000AF78609B
:1035AC0039607B68002B01D10123D0E06A4B1B688A
:1035BC0003F007033A689A4210D9674B1B6823F053
:1035CC00070265493B6813430B60634B1B6803F0B0
:1035DC0007033A689A4201D00123B8E07B681B6864
:1035EC0003F00203002B20D07B681B6803F004035C
:1035FC00002B05D0594B5B68584A43F4E063536089
:10360C007B681B6803F00803002B05D0534B5B68E9
:10361C00524A43F460535360504B5B6823F0F00202
:10362C007B689B684D4913434B607B681B6803F0B8
:10363C000103002B40D07B685B68012B07D1474B03
:10364C001B6803F40033002B15D101237FE07B684A
:10365C005B68022B07D1414B1B6803F00073002BF6
:10366C0009D1012373E03D4B1B6803F00203002BCF
:10367C0001D101236BE0394B5B6823F003027B68BB
:10368C005B68364913434B60FEF726F9F8600AE095
:10369C00FEF722F90246FB68D31A41F288329342B4
:1036AC0001D9032353E02D4B5B6803F00C027B68BC
:1036BC005B689B009A42EBD1274B1B6803F0070316
:1036CC003A689A4210D2244B1B6823F00702224915
:1036DC003B6813430B60204B1B6803F007033A68ED
:1036EC009A4201D0012332E07B681B6803F004038B
:1036FC00002B08D0194B5B6823F4E0627B68DB6815
:10370C00164913434B607B681B6803F00803002BBE
:10371C0009D0124B5B6823F460527B681B69DB0099
:10372C000E4913434B6000F021F802460B4B5B68CB
:10373C001B0903F00F030A49CB5C22FA03F3094A75
:10374C001360094B1B681846FEF784F800231846D3
:10375C001037BD4680BD00BF002002400010024063
:10376C00805E0008040000200800002080B487B0B0
:10377C0000AF0023FB600023BB6000237B610023B0
:10378C007B6000233B611E4B5B68FB60FB6803F0B6
:10379C000C03042B02D0082B03D027E0194B3B6100
:1037AC0027E0FB689B0C03F00F03174AD35C7B608C
:1037BC00FB6803F48033002B10D0114B5B685B0C5F
:1037CC0003F00103114AD35CBB607B680D4A02FB1A
:1037DC0003F2BB68B2FBF3F37B6104E07B680C4A39
:1037EC0002FB03F37B617B693B6102E0054B3B61B0
:1037FC0000BF3B6918461C37BD4680BC704700BFF4
:10380C000010024000127A00985E0008A85E0008C2
:10381C0000093D0080B400AF024B1B681846BD4642
:10382C0080BC70470400002080B500AFFFF7F2FFAA
:10383C000246054B5B681B0A03F007030349CB5C8C
:10384C0022FA03F3184680BD00100240905E000877
:10385C0080B500AFFFF7DEFF0246054B5B68DB0A65
:10386C0003F007030349CB5C22FA03F3184680BD2F
:10387C0000100240905E000880B485B000AF786004
:10388C000A4B1B680A4AA2FB03235B0A7A6802FBF9
:10389C0003F3FB6000BFFB685A1EFA60002BF9D1E2
:1038AC0000BF00BF1437BD4680BC70470400002029
:1038BC00D34D621080B582B000AF78607B68002B6E
:1038CC0001D1012341E07B6893F83D30DBB2002B42
:1038DC0006D17B68002283F83C207868FDF7F4FD64
:1038EC007B68022283F83D207B681A687B6804336E
:1038FC001946104600F018FC7B68012283F846201C
:10390C007B68012283F83E207B68012283F83F20EC
:10391C007B68012283F840207B68012283F84120D8
:10392C007B68012283F842207B68012283F84320C4
:10393C007B68012283F844207B68012283F84520B0
:10394C007B68012283F83D20002318460837BD46CA
:10395C0080BD000080B485B000AF78607B6893F8C0
:10396C003D30DBB2012B01D001233AE07B6802220F
:10397C0083F83D207B681B68DA687B681B6842F023
:10398C000102DA607B681B68184A93420ED07B6890
:10399C001B68B3F1804F09D07B681B68144A9342B3
:1039AC0004D07B681B68134A934211D17B681B6857
:1039BC009B6803F00703FB60FB68062B10D07B6849
:1039CC001B681A687B681B6842F001021A6007E0EA
:1039DC007B681B681A687B681B6842F001021A60DE
:1039EC00002318461437BD4680BC7047002C01409C
:1039FC00000400400008004080B582B000AF786041
:103A0C007B68002B01D1012341E07B6893F83D30AA
:103A1C00DBB2002B06D17B68002283F83C2078684F
:103A2C0000F039F87B68022283F83D207B681A6825
:103A3C007B6804331946104600F076FB7B68012244
:103A4C0083F846207B68012283F83E207B680122A4
:103A5C0083F83F207B68012283F840207B68012299
:103A6C0083F841207B68012283F842207B68012285
:103A7C0083F843207B68012283F844207B68012271
:103A8C0083F845207B68012283F83D2000231846EB
:103A9C000837BD4680BD80B483B000AF786000BFEE
:103AAC000C37BD4680BC704780B584B000AF7860E1
:103ABC0039603B68002B09D17B6893F83E30DBB250
:103ACC00012B14BF01230023DBB222E03B68042B43
:103ADC0009D17B6893F83F30DBB2012B14BF012373
:103AEC000023DBB215E03B68082B09D17B6893F807
:103AFC004030DBB2012B14BF01230023DBB208E002
:103B0C007B6893F84130DBB2012B14BF01230023F7
:103B1C00DBB2002B01D001235EE03B68002B04D10B
:103B2C007B68022283F83E2013E03B68042B04D10F
:103B3C007B68022283F83F200BE03B68082B04D102
:103B4C007B68022283F8402003E07B68022283F822
:103B5C0041207B681B6801223968184600F070FD13
:103B6C007B681B681E4A934207D17B681B685A6CA2
:103B7C007B681B6842F400425A647B681B68184AD5
:103B8C0093420ED07B681B68B3F1804F09D07B68E1
:103B9C001B68144A934204D07B681B68124A9342F8
:103BAC0011D17B681B689B6803F00703FB60FB6803
:103BBC00062B10D07B681B681A687B681B6842F068
:103BCC0001021A6007E07B681B681A687B681B6837
:103BDC0042F001021A60002318461037BD4680BD22
:103BEC00002C0140000400400008004080B584B067
:103BFC0000AF78607B681B68DB68FB607B681B68C8
:103C0C001B69BB60BB6803F00203002B20D0FB6870
:103C1C0003F00203002B1BD07B681B686FF00202C1
:103C2C001A617B6801221A777B681B689B6903F019
:103C3C000303002B03D0786800F05AFA05E078688B
:103C4C0000F04DFA786800F05CFA7B6800221A7775
:103C5C00BB6803F00403002B20D0FB6803F00403C3
:103C6C00002B1BD07B681B686FF004021A617B6809
:103C7C0002221A777B681B689B6903F44073002B44
:103C8C0003D0786800F034FA05E0786800F027FA81
:103C9C00786800F036FA7B6800221A77BB6803F06C
:103CAC000803002B20D0FB6803F00803002B1BD06B
:103CBC007B681B686FF008021A617B6804221A7714
:103CCC007B681B68DB6903F00303002B03D0786867
:103CDC0000F00EFA05E0786800F001FA786800F060
:103CEC0010FA7B6800221A77BB6803F01003002BD4
:103CFC0020D0FB6803F01003002B1BD07B681B68E3
:103D0C006FF010021A617B6808221A777B681B68B7
:103D1C00DB6903F44073002B03D0786800F0E8F9FA
:103D2C0005E0786800F0DBF9786800F0EAF97B6868
:103D3C0000221A77BB6803F00103002B0CD0FB6840
:103D4C0003F00103002B07D07B681B686FF00102A6
:103D5C001A617868FCF7C0FFBB6803F08003002B86
:103D6C000CD0FB6803F08003002B07D07B681B682A
:103D7C006FF080021A61786800F03EFDBB6803F0BA
:103D8C004003002B0CD0FB6803F04003002B07D042
:103D9C007B681B686FF040021A61786800F0BAF912
:103DAC00BB6803F02003002B0CD0FB6803F020034E
:103DBC00002B07D07B681B686FF020021A617868B3
:103DCC0000F011FD00BF1037BD4680BD80B586B038
:103DDC0000AFF860B9607A600023FB75FB6893F85C
:103DEC003C30012B01D10223AEE0FB68012283F8A9
:103DFC003C207B680C2B00F29F8001A252F823F030
:103E0C00413E0008453F0008453F0008453F00087B
:103E1C00813E0008453F0008453F0008453F00082B
:103E2C00C33E0008453F0008453F0008453F0008D9
:103E3C00033F0008FB681B68B968184600F0E2F9FC
:103E4C00FB681B689A69FB681B6842F008029A6160
:103E5C00FB681B689A69FB681B6822F004029A6174
:103E6C00FB681B689969BB681A69FB681B680A4385
:103E7C009A6164E0FB681B68B968184600F028FA80
:103E8C00FB681B689A69FB681B6842F400629A61C4
:103E9C00FB681B689A69FB681B6822F480629A6154
:103EAC00FB681B689969BB681B691A02FB681B6875
:103EBC000A439A6143E0FB681B68B968184600F036
:103ECC0071FAFB681B68DA69FB681B6842F0080230
:103EDC00DA61FB681B68DA69FB681B6822F0040274
:103EEC00DA61FB681B68D969BB681A69FB681B68D7
:103EFC000A43DA6123E0FB681B68B968184600F0D6
:103F0C00BBFAFB681B68DA69FB681B6842F4006249
:103F1C00DA61FB681B68DA69FB681B6822F4806253
:103F2C00DA61FB681B68D969BB681B691A02FB68FC
:103F3C001B680A43DA6102E00123FB7500BFFB68D2
:103F4C00002283F83C20FB7D18461837BD4680BD07
:103F5C0080B584B000AF786039600023FB737B6858
:103F6C0093F83C30012B01D10223B4E07B68012291
:103F7C0083F83C207B68022283F83D207B681B6819
:103F8C009B68BB60BB6823F07703BB60BB6823F402
:103F9C007F43BB607B681B68BA689A603B681B6890
:103FAC00B3F5005F3ED0B3F5005F00F28780B3F548
:103FBC00805F00F08680B3F5805F7FD8702B1AD0BD
:103FCC00702B7BD8602B50D0602B77D8502B3CD0EB
:103FDC00502B73D8402B58D0402B6FD8302B64D03B
:103FEC00302B6BD8202B60D0202B67D8002B5CD0CB
:103FFC00102B5AD062E07B6818683B6899683B6864
:10400C005A683B68DB6800F0FCFA7B681B689B68AD
:10401C00BB60BB6843F07703BB607B681B68BA6806
:10402C009A604FE07B6818683B6899683B685A68EF
:10403C003B68DB6800F0E5FA7B681B689A687B6874
:10404C001B6842F480429A603CE07B6818683B68CD
:10405C0059683B68DB681A4600F05CFA7B681B68A1
:10406C005021184600F0B3FA2CE07B6818683B68C6
:10407C0059683B68DB681A4600F07AFA7B681B6863
:10408C006021184600F0A3FA1CE07B6818683B68B6
:10409C0059683B68DB681A4600F03CFA7B681B6881
:1040AC004021184600F093FA0CE07B681A683B68D4
:1040BC001B681946104600F08AFA03E00123FB73D3
:1040CC0000E000BF7B68012283F83D207B68002262
:1040DC0083F83C20FB7B18461037BD4680BD80B46E
:1040EC0083B000AF786000BF0C37BD4680BC704712
:1040FC0080B483B000AF786000BF0C37BD4680BC85
:10410C00704780B483B000AF786000BF0C37BD46F9
:10411C0080BC704780B483B000AF786000BF0C37B0
:10412C00BD4680BC7047000080B485B000AF78609D
:10413C0039607B681B68FB607B682F4A93420BD00D
:10414C007B68B3F1804F07D07B682C4A934203D035
:10415C007B682B4A934208D1FB6823F07003FB6009
:10416C003B685B68FA681343FB607B68224A9342A6
:10417C000BD07B68B3F1804F07D07B681F4A93420A
:10418C0003D07B681E4A934208D1FB6823F440732A
:10419C00FB603B68DB68FA681343FB60FB6823F049
:1041AC0080023B685B691343FB607B68FA681A60AA
:1041BC003B689A687B68DA623B681A687B689A622B
:1041CC007B680D4A934203D13B681A697B681A637A
:1041DC007B6801225A617B681B6903F00103002B89
:1041EC0005D07B681B6923F001027B681A6100BF54
:1041FC001437BD4680BC7047002C014000040040C1
:10420C000008004080B487B000AF786039607B68EC
:10421C001B6A7B617B681B6A23F001027B681A6254
:10422C007B685B683B617B689B69FB60FB6823F088
:10423C007003FB60FB6823F00303FB603B681B68A7
:10424C00FA681343FB607B6923F002037B613B68D4
:10425C009B687A6913437B617B681C4A93420CD13F
:10426C007B6923F008037B613B68DB687A69134345
:10427C007B617B6923F004037B617B68134A934267
:10428C0011D13B6923F480733B613B6923F40073C8
:10429C003B613B685B693A6913433B613B689B69D3
:1042AC003A6913433B617B683A695A607B68FA68E8
:1042BC009A613B685A687B685A637B687A691A62B0
:1042CC0000BF1C37BD4680BC704700BF002C0140AE
:1042DC0080B487B000AF786039607B681B6A7B6103
:1042EC007B681B6A23F010027B681A627B685B6830
:1042FC003B617B689B69FB60FB6823F4E043FB60DC
:10430C00FB6823F44073FB603B681B681B02FA6874
:10431C001343FB607B6923F020037B613B689B6844
:10432C001B017A6913437B617B681D4A93420DD153
:10433C007B6923F080037B613B68DB681B017A6936
:10434C0013437B617B6923F040037B617B68144AD8
:10435C00934213D13B6923F480633B613B6923F4A3
:10436C0000633B613B685B699B003A6913433B61AB
:10437C003B689B699B003A6913433B617B683A69D4
:10438C005A607B68FA689A613B685A687B689A63E2
:10439C007B687A691A6200BF1C37BD4680BC7047C7
:1043AC00002C014080B487B000AF786039607B6826
:1043BC001B6A7B617B681B6A23F480727B681A62C0
:1043CC007B685B683B617B68DB69FB60FB6823F0A7
:1043DC007003FB60FB6823F00303FB603B681B6806
:1043EC00FA681343FB607B6923F400737B613B68C1
:1043FC009B681B027A6913437B617B681D4A93425D
:10440C000DD17B6923F400637B613B68DB681B0285
:10441C007A6913437B617B6923F480637B617B68DE
:10442C00144A934213D13B6923F480533B613B699B
:10443C0023F400533B613B685B691B013A691343EE
:10444C003B613B689B691B013A6913433B617B6889
:10445C003A695A607B68FA68DA613B685A687B682B
:10446C00DA637B687A691A6200BF1C37BD4680BC70
:10447C00704700BF002C014080B487B000AF78605B
:10448C0039607B681B6A3B617B681B6A23F4805232
:10449C007B681A627B685B687B617B68DB69FB60AD
:1044AC00FB6823F4E043FB60FB6823F44073FB6080
:1044BC003B681B681B02FA681343FB603B6923F4DF
:1044CC0000533B613B689B681B033A6913433B6198
:1044DC007B680F4A934209D17B6923F480437B614B
:1044EC003B685B699B017A6913437B617B687A69E2
:1044FC005A607B68FA68DA613B685A687B681A64B0
:10450C007B683A691A6200BF1C37BD4680BC704795
:10451C00002C014080B487B000AFF860B9607A60BD
:10452C00FB681B6A7B61FB681B6A23F00102FB685A
:10453C001A62FB689B693B613B6923F0F0033B61AA
:10454C007B681B013A6913433B617B6923F00A03C7
:10455C007B617A69BB6813437B61FB683A699A613A
:10456C00FB687A691A6200BF1C37BD4680BC704775
:10457C0080B487B000AFF860B9607A60FB681B6AE2
:10458C007B61FB681B6A23F01002FB681A62FB68F4
:10459C009B693B613B6923F470433B617B681B0364
:1045AC003A6913433B617B6923F0A0037B61BB68D1
:1045BC001B017A6913437B61FB683A699A61FB685A
:1045CC007A691A6200BF1C37BD4680BC704780B444
:1045DC0085B000AF786039607B689B68FB60FB68D6
:1045EC0023F07003FB603A68FB68134343F0070346
:1045FC00FB607B68FA689A6000BF1437BD4680BCCC
:10460C00704780B487B000AFF860B9607A603B60E7
:10461C00FB689B687B617B6923F47F437B613B6810
:10462C001A027B681A43BB6813437A6913437B6194
:10463C00FB687A699A6000BF1C37BD4680BC704726
:10464C0080B487B000AFF860B9607A60BB6803F0E3
:10465C001F03012202FA03F37B61FB681A6A7B6970
:10466C00DB431A40FB681A62FB681A6ABB6803F0EA
:10467C001F03796801FA03F31A43FB681A6200BF3F
:10468C001C37BD4680BC704780B485B000AF7860E5
:10469C0039607B6893F83C30012B01D1022346E052
:1046AC007B68012283F83C207B68022283F83D2042
:1046BC007B681B685B68FB607B681B689B68BB60E6
:1046CC00FB6823F07003FB603B681B68FA681343BC
:1046DC00FB607B681B68FA685A607B681B68164A2B
:1046EC0093420ED07B681B68B3F1804F09D07B6876
:1046FC001B68124A934204D07B681B68104A934291
:10470C000CD1BB6823F08003BB603B685B68BA6864
:10471C001343BB607B681B68BA689A607B68012294
:10472C0083F83D207B68002283F83C200023184648
:10473C001437BD4680BC7047002C0140000400407B
:10474C000008004080B485B000AF78603960002369
:10475C00FB607B6893F83C30012B01D102233DE0D8
:10476C007B68012283F83C20FB6823F0FF023B6846
:10477C00DB681343FB60FB6823F440723B689B6867
:10478C001343FB60FB6823F480623B685B68134354
:10479C00FB60FB6823F400623B681B681343FB60FF
:1047AC00FB6823F480523B681B691343FB60FB6876
:1047BC0023F400523B685B691343FB60FB6823F4F2
:1047CC0080423B68DB691343FB607B681B68FA68BB
:1047DC005A647B68002283F83C2000231846143767
:1047EC00BD4680BC704780B483B000AF786000BF1A
:1047FC000C37BD4680BC704780B483B000AF786086
:10480C0000BF0C37BD4680BC704780B582B000AF8E
:10481C0078607B68002B01D1012342E07B6893F820
:10482C004130DBB2002B06D17B68002283F840209C
:10483C007868FCF7B5FE7B68242283F841207B68FE
:10484C001B68DA687B681B6822F40052DA607868AF
:10485C0000F062FD7B681B681A697B681B6822F498
:10486C0090421A617B681B685A697B681B6822F04E
:10487C002A025A617B681B68DA687B681B6842F401
:10488C000052DA607B6800225A647B68202283F82D
:10489C0041207B68202283F842207B6800225A63E7
:1048AC00002318460837BD4680BD80B58AB002AFDC
:1048BC00F860B9603B601346FB8000237B61FB68AA
:1048CC0093F84130DBB2202B75D1BB68002B02D0A2
:1048DC00FB88002B01D101236EE0FB6800225A6497
:1048EC00FB68212283F84120FCF7F6FF7861FB6816
:1048FC00FA889A84FB68FA88DA84FB689B68B3F5BB
:10490C00805F08D1FB681B69002B04D10023FB617D
:10491C00BB68BB6103E0BB68FB610023BB612EE09D
:10492C003B6800937B6900228021F86800F000FB53
:10493C000346002B05D0FB68202283F8412003237B
:10494C003AE0FB69002B0BD1BB691B881A46FB684C
:10495C001B68C2F308025A60BB690233BB6107E0F3
:10496C00FB691A78FB681B685A60FB690133FB61B1
:10497C00FB68DB8C9BB2013B9AB2FB68DA84FB6868
:10498C00DB8C9BB2002BCBD13B6800937B69002264
:10499C004021F86800F0CCFA0346002B05D0FB68E8
:1049AC00202283F84120032306E0FB68202283F8B1
:1049BC004120002300E0022318462037BD4680BD6D
:1049CC0080B5BAB000AF78607B681B681B68C7F80D
:1049DC00E4307B681B68DB68C7F8E0307B681B68D9
:1049EC005B69C7F8DC300023C7F8D8300023C7F860
:1049FC00D430D7F8E43003F00F03C7F8D830D7F829
:104A0C00D830002B0FD1D7F8E43003F02003002B63
:104A1C0009D0D7F8E03003F02003002B03D07868DE
:104A2C0000F0BCFB5BE2D7F8D830002B00F0DE8046
:104A3C00D7F8DC3003F00103002B06D1D7F8E030B7
:104A4C0003F49073002B00F0D180D7F8E43003F01E
:104A5C000103002B0BD0D7F8E03003F48073002B4C
:104A6C0005D07B685B6C43F001027B685A64D7F815
:104A7C00E43003F00403002B0BD0D7F8DC3003F048
:104A8C000103002B05D07B685B6C43F002027B6852
:104A9C005A64D7F8E43003F00203002B0BD0D7F89C
:104AAC00DC3003F00103002B05D07B685B6C43F01A
:104ABC0004027B685A64D7F8E43003F00803002B37
:104ACC0011D0D7F8E03003F02003002B05D1D7F834
:104ADC00DC3003F00103002B05D07B685B6C43F0EA
:104AEC0008027B685A647B685B6C002B00F0F281D7
:104AFC00D7F8E43003F02003002B08D0D7F8E030CF
:104B0C0003F02003002B02D0786800F047FB7B6891
:104B1C001B685B6903F04003002B14BF01230023C7
:104B2C00DBB2C7F8D4307B685B6C03F00803002B56
:104B3C0003D1D7F8D430002B4FD0786800F051FA5D
:104B4C007B681B685B6903F04003002B41D07B68DA
:104B5C001B681433C7F89C30D7F89C3053E8003FDF
:104B6C00C7F89830D7F8983023F04003C7F8D03006
:104B7C007B681B681433D7F8D020C7F8A820C7F877
:104B8C00A430D7F8A410D7F8A82041E80023C7F820
:104B9C00A030D7F8A030002BD9D17B68DB6B002B71
:104BAC0013D07B68DB6B7E4A5A637B68DB6B1846E1
:104BBC00FDF708F80346002B16D07B68DB6B5B6BAC
:104BCC007A68D26B104698470EE0786800F09CF932
:104BDC000AE0786800F098F906E0786800F094F93B
:104BEC007B6800225A6475E100BF73E17B681B6B24
:104BFC00012B40F04F81D7F8E43003F01003002B69
:104C0C0000F04881D7F8E03003F01003002B00F0DF
:104C1C0041810023BB607B681B681B68BB607B68A1
:104C2C001B685B68BB60BB687B681B685B6903F0D7
:104C3C004003002B00F0B6807B68DB6B1B685B6865
:104C4C00A7F8BE30B7F8BE30002B00F045817B686A
:104C5C009B8DB7F8BE209A4280F03E817B68B7F8F6
:104C6C00BE20DA857B68DB6B9B69202B00F088808B
:104C7C007B681B680C33C7F88830D7F8883053E84A
:104C8C00003FC7F88430D7F8843023F48073C7F81A
:104C9C00B8307B681B680C33D7F8B820C7F8942061
:104CAC00C7F89030D7F89010D7F8942041E800233B
:104CBC00C7F88C30D7F88C30002BD9D17B681B68A7
:104CCC0014337B677B6F53E8003F3B673B6F23F0EC
:104CDC000103C7F8B4307B681B681433D7F8B420D1
:104CEC00C7F88020FB67F96FD7F8802041E80023D4
:104CFC00BB67BB6F002BE1D17B681B6814333B6631
:104D0C003B6E53E8003FFB65FB6D23F04003C7F897
:104D1C00B0307B681B681433D7F8B020FA66BB66DA
:104D2C00B96EFA6E41E800237B667B6E002BE3D1F3
:104D3C007B68202283F842207B6800221A637B6800
:104D4C001B680C33FB64FB6C53E8003FBB64BB6C0F
:104D5C0023F01003C7F8AC307B681B680C33D7F812
:104D6C00AC20BA657B65796DBA6D41E800233B6573
:104D7C003B6D002BE3D17B68DB6B1846FCF7E7FE41
:104D8C007B6802225A637B689A8D7B68DB8D9BB2B1
:104D9C00D31A9BB21946786800F0BFF89CE000BFAC
:104DAC00B35000087B689A8D7B68DB8D9BB2D31A5D
:104DBC00A7F8CE307B68DB8D9BB2002B00F08E8089
:104DCC00B7F8CE30002B00F089807B681B680C3361
:104DDC00BB63BB6B53E8003F7B637B6B23F490732B
:104DEC00C7F8C8307B681B680C33D7F8C8207A64C6
:104DFC003B64396C7A6C41E80023FB63FB6B002B42
:104E0C00E3D17B681B6814337B627B6A53E8003FF9
:104E1C003B623B6A23F00103C7F8C4307B681B6814
:104E2C001433D7F8C4203A63FB62F96A3A6B41E851
:104E3C000023BB62BB6A002BE3D17B68202283F882
:104E4C0042207B6800221A637B681B680C333B6131
:104E5C003B6953E8003FFB60FB6823F01003C7F885
:104E6C00C0307B681B680C33D7F8C020FA61BB617B
:104E7C00B969FA6941E800237B617B69002BE3D1B6
:104E8C007B6802225A63B7F8CE301946786800F076
:104E9C0044F823E0D7F8E43003F08003002B09D06A
:104EAC00D7F8E03003F08003002B03D0786800F0D3
:104EBC000EF914E0D7F8E43003F04003002B0ED0C9
:104ECC00D7F8E03003F04003002B08D0786800F0EE
:104EDC004DF904E000BF02E000BF00E000BFE8377E
:104EEC00BD4680BD80B483B000AF786000BF0C3786
:104EFC00BD4680BC704780B483B000AF786000BF03
:104F0C000C37BD4680BC704780B483B000AF78606E
:104F1C0000BF0C37BD4680BC704780B483B000AF77
:104F2C0078600B467B8000BF0C37BD4680BC704759
:104F3C0080B586B000AFF860B9603B601346FB717A
:104F4C003BE03B6AB3F1FF3F37D0FCF7C5FC0246B0
:104F5C003B68D31A3A6A9A4202D33B6A002B01D1BE
:104F6C0003233AE0FB681B68DB6803F00403002BA7
:104F7C0023D0BB68802B20D0BB68402B1DD0FB6896
:104F8C001B681B6803F00803082B16D100237B61F8
:104F9C00FB681B681B687B61FB681B685B687B613B
:104FAC007B69F86800F01DF8FB6808225A64FB68FE
:104FBC00002283F8402001230FE0FB681B681A686D
:104FCC00BB681340BA689A420CBF01230023DBB2C2
:104FDC001A46FB799A42B4D0002318461837BD46BE
:104FEC0080BD80B495B000AF78607B681B680C33D3
:104FFC007B637B6B53E8003F3B633B6B23F4907309
:10500C00FB647B681B680C33FA6C3A64FB63F96BCA
:10501C003A6C41E80023BB63BB6B002BE5D17B688A
:10502C001B6814333B623B6A53E8003FFB61FB692E
:10503C0023F00103BB647B681B681433BA6CFA62FF
:10504C00BB62B96AFA6A41E800237B627B6A002B77
:10505C00E5D17B681B6B012B19D17B681B680C336A
:10506C00FB60FB6853E8003FBB60BB6823F0100398
:10507C007B647B681B680C337A6CBA617B617969E1
:10508C00BA6941E800233B613B69002BE5D17B68A1
:10509C00202283F842207B6800221A6300BF543719
:1050AC00BD4680BC704780B584B000AF78607B682B
:1050BC005B6AFB60FB680022DA85FB680022DA84FD
:1050CC00F868FFF721FF00BF1037BD4680BD80B4E4
:1050DC0085B000AF78607B6893F84130DBB2212B50
:1050EC003ED17B689B68B3F5805F14D17B681B69EC
:1050FC00002B10D17B681B6AFB60FB681B881A466F
:10510C007B681B68C2F308025A607B681B6A9A1C96
:10511C007B681A6208E07B681B6A591C7A6811620A
:10512C001A787B681B685A607B68DB8C9BB2013BEE
:10513C009BB27A681946D184002B0FD17B681B680F
:10514C00DA687B681B6822F08002DA607B681B6877
:10515C00DA687B681B6842F04002DA60002300E0EA
:10516C00022318461437BD4680BC704780B582B008
:10517C0000AF78607B681B68DA687B681B6822F07C
:10518C004002DA607B68202283F841207868FFF7C0
:10519C00A9FE002318460837BD4680BD80B58CB0EB
:1051AC0000AF78607B6893F84230DBB2222B40F082
:1051BC00AE807B689B68B3F5805F17D17B681B69F9
:1051CC00002B13D10023FB627B689B6ABB627B685C
:1051DC001B685B689BB2C3F308039AB2BB6A1A8064
:1051EC007B689B6A9A1C7B689A6226E07B689B6A48
:1051FC00FB620023BB627B689B68B3F5805F07D0C2
:10520C007B689B68002B0AD17B681B69002B06D13D
:10521C007B681B685B68DAB2FB6A1A7008E07B6813
:10522C001B685B68DBB203F07F03DAB2FB6A1A70AF
:10523C007B689B6A5A1C7B689A627B68DB8D9BB28D
:10524C00013B9BB27A681946D185002B5DD17B68F6
:10525C001B68DA687B681B6822F02002DA607B68C6
:10526C001B68DA687B681B6822F48072DA607B68E2
:10527C001B685A697B681B6822F001025A617B68C3
:10528C00202283F842207B6800225A637B681B6BC8
:10529C00012B35D17B6800221A637B681B680C33A9
:1052AC007B617B6953E8003F3B613B6923F0100352
:1052BC007B627B681B680C337A6A3A62FB61F96922
:1052CC003A6A41E80023BB61BB69002BE5D17B68DE
:1052DC001B681B6803F01003102B0AD10023FB6022
:1052EC007B681B681B68FB607B681B685B68FB60EA
:1052FC00FB687B689B8D19467868FFF70EFE02E011
:10530C007868FFF7F8FD002302E0002300E0022399
:10531C0018463037BD4680BD80B584B000AF78608C
:10532C007B681B681B6923F440517B68DA687B68D7
:10533C001B680A431A617B689A687B681B691A436D
:10534C007B685B691343BB607B681B68DB6823F479
:10535C00B05323F00C037A681268B9680B43D3601E
:10536C007B681B685B6923F440717B689A697B6876
:10537C001B680A435A617B681B682C4A934203D111
:10538C00FEF766FAF86002E0FEF74EFAF860FA688B
:10539C0013469B0013449A001A447B685B689B007D
:1053AC00B2FBF3F3224AA2FB03235B091901FA684F
:1053BC0013469B0013449A001A447B685B689B005D
:1053CC00B2FBF3F21A4BA3FB02035B09642000FB54
:1053DC0003F3D31A1B013233154AA2FB03235B09D7
:1053EC0003F0F0031944FA6813469B0013449A0027
:1053FC001A447B685B689B00B2FBF3F20C4BA3FB7B
:10540C0002035B09642000FB03F3D31A1B01323344
:10541C00074AA2FB03235B0903F00F027B681B689E
:10542C000A449A6000BF1037BD4680BD0038014069
:10543C001F85EB510A22002100F0D8B8014B1868E7
:10544C00704700BF1000002070B500260C4D0D4CAD
:10545C00641BA410A64209D100F0ECFC00260A4DF6
:10546C000A4C641BA410A64205D170BD55F8043B30
:10547C0098470136EEE755F8043B98470136F2E7BA
:10548C00E05F0008E05F0008E05F0008E45F0008F0
:10549C0003460244934200D1704703F8011BF9E71D
:1054AC000EB46FF0004100B59CB01DAB029006909D
:1054BC00079104910848094953F8042B0591006899
:1054CC0002A9019300F0F8F80022029B1A701CB09C
:1054DC005DF804EB03B07047100000200802FFFFDA
:1054EC00012B2DE9F047864601D0242B06D9FFF776
:1054FC00A5FF162303600020BDE8F0878C463A4ECA
:10550C0060461CF8014BA55D15F00805F8D12D2C53
:10551C0033D14FF001089CF8004000F1020C002B35
:10552C005DD0102B0CD1302C0AD19CF8000000F06F
:10553C00DF0058284ED110239CF801400CF1020CCE
:10554C00002508F10047013FB7FBF3F9284603FBA0
:10555C00197AA4F13006092E18D83446A34224DD5A
:10556C00002D1FDB81451DD301D1A2451ADB01257E
:10557C0000FB03401CF8014BEBE72B2C08BF9CF8FD
:10558C000040A84608BF00F1020CC8E7A4F1410690
:10559C00192E01D8373CE1E7A4F16106192E04D885
:1055AC00573CDBE74FF0FF35E4E7002D08DA222308
:1055BC003846CEF80030002A9ED00CF1FF3107E0BF
:1055CC00B8F1000F00D04042002A95D0002DF4D144
:1055DC00116091E73024002BB2D10823B0E7302CB6
:1055EC00A3D00A23ACE700BFAB5E000813460A4603
:1055FC00014602480068FFF773BF00BF100000208F
:10560C002DE9F0478E6882469E420C4690461F4616
:10561C0038D88A8912F4906F32D025680969013321
:10562C00A5EB010965694B4405EB450505EBD57503
:10563C006D109D4238BF1D46530531D5294600F0EB
:10564C0053FB064650B90C234FF0FF30CAF800301C
:10565C00A38943F04003A381BDE8F0874A46216942
:10566C0000F0CEFAA38923F4906343F08003A38166
:10567C0026614E4426603E466561A5EB0905A56092
:10568C00BE4200D93E4632464146206800F0C6FA7A
:10569C00A36822689B1B32440020A3602260DBE7D6
:1056AC002A4600F07BFB06460028E1D150462169D2
:1056BC0000F0CEFAC7E700002DE9F04F98468B8931
:1056CC0007461B060D4614469DB00ED50B6963B9F3
:1056DC00402100F009FB2860286120B90C233B60B5
:1056EC004FF0FF30D1E040236B610023099320235E
:1056FC008DF8293030234FF00109CDF80C80DFF8FC
:10570C00A4818DF82A3023469A4613F8012B0AB14E
:10571C00252AF9D1BAEB040B0BD05B46224629465D
:10572C003846FFF76DFF013000F0AA80099A5A4401
:10573C0009929AF80030002B00F0A28000234FF061
:10574C00FF32CDE905230AF1010A049307938DF882
:10575C0053301A935446052214F8011B514800F09B
:10576C0041FA049AD8B9D00644BF20238DF853309F
:10577C00110744BF2B238DF853309AF800302A2B95
:10578C0015D0544600204FF00A0C079A214611F808
:10579C00013B303B092B4ED9B0B1079214E0A0EB82
:1057AC00080309FA03F31343A2460493D2E7039BBD
:1057BC00191D1B680391002BBBBF5B4242F0020218
:1057CC0007930793B8BF049223782E2B0CD16378E0
:1057DC002A2B35D1039B02341A1D1B680392002B14
:1057EC00B8BF4FF0FF330593DFF8C8A00322504633
:1057FC00217800F0F7F940B14023A0EB0A0003FA3E
:10580C0000F0049B01340343049314F8011B06229B
:10581C0025488DF8281000F0E5F9002838D0234BE6
:10582C001BBB039B073323F0070308330393099B2C
:10583C003344099367E70C4601200CFB0232A5E7C1
:10584C0000234FF00A0C194601340593204610F83A
:10585C00012B303A092A03D9002BC5D00591C3E797
:10586C00044601230CFB0121F0E703AB00932A460D
:10587C0038460F4B04A9AFF30080421C0646D6D124
:10588C00AB895B063FF52CAF09981DB0BDE8F08FD6
:10589C0003AB00932A463846054B04A900F07CF86C
:1058AC00EBE700BFAB5F0008B55F0008000000002D
:1058BC000D560008B15F00082DE9F04716469946D1
:1058CC008A680B6907469342B8BF1346336091F858
:1058DC0043200C46DDF820800AB101333360236885
:1058EC00990642BF336802333360256815F006050C
:1058FC0006D104F1190AE36832689B1AAB4228DC22
:10590C0094F84320131E226818BF012392062DD44D
:10591C004946384604F14302C047013020D0236881
:10592C00E56803F00603042B18BF002532684FF01E
:10593C000006A36808BFAD1A226908BF25EAE57501
:10594C009342C4BF9B1AED181A34B5421AD10020E9
:10595C0008E00123524649463846C047013003D17E
:10596C004FF0FF30BDE8F0870135C4E73020E11877
:10597C0081F843005A1C94F845102244023382F8F3
:10598C004310C5E70123224649463846C04701303B
:10599C00E6D00136D9E700002DE9FF470C46277EFB
:1059AC009146782F80469A460C9904F1430207D809
:1059BC00622F0AD8002F00F0D980582F00F0A48055
:1059CC0004F1420684F842703AE0A7F16303152B08
:1059DC00F6D801A050F823F03D5A0008515A00089F
:1059EC00CD590008CD590008CD590008CD590008F3
:1059FC00515A0008CD590008CD590008CD5900085E
:105A0C00CD5900085F5B0008815A0008415B000813
:105A1C00CD590008CD590008815B0008CD5900080C
:105A2C00815A0008CD590008CD590008495B00087F
:105A3C000B6804F142061A1D1B680A6084F8423098
:105A4C000123A4E0256808682E0600F104030AD59A
:105A5C0005680B60002D03DA2D236D4284F843306A
:105A6C000A235E4819E015F0400F05680B6018BF5B
:105A7C002DB2EFE70B682568181D0860280601D5C4
:105A8C001D6802E06906FBD51D886F2F0CBF08232B
:105A9C000A235248002184F843106668002EA8BFE0
:105AAC002168A660A4BF21F0040121600DB9002E6D
:105ABC004DD01646B5FBF3F103FB1157C75D06F845
:105ACC00017D2F46BB420D46F4D9082B0BD1236820
